:100000000C942A000C943F000C943F000C943F0089
:100010000C943F000C943F000C943F000C943F0064
:100020000C943F000C943F000C943F000C943F0054
:100030000C943F000C943F000C943F000C943F0044
:100040000C943F000C943F000C943F000C943F0034
:100050000C943F0011241FBECFE5D4E0DEBFCDBF1E
:1000600010E0A0E6B0E0ECE8F3E002C005900D92ED
:10007000AE38B107D9F70E949F010C94C4010C94CB
:100080000000482F87B98EEC86B9349BFECF349A96
:1000900064B175B188EA91E60197F1F747B98EEC42
:1000A00086B9349BFECF349A24B135B188EA91E603
:1000B0000197F1F747B98EEC86B9349BFECF349A9D
:1000C00084B195B1260F371F820F931F63E070E054
:1000D0000E94B00121E330E0A901649F9001659F77
:1000E000300D749F300D1124C9010895DF93CF9313
:1000F000CDB7DEB72B970FB6F894DEBF0FBECDBFDE
:100100008091600090916100A0916200B0916300C5
:1001100089839A83AB83BC8383E490E00E9441008F
:100120009C01FE0134960DC0C9016AE070E00E9496
:10013000B0018083C9016AE070E00E94B0019B01B8
:1001400031972115310581F78981805D8093740095
:10015000803519F480E2809374008A81805D8093F9
:100160007500803519F480E3809375008B81805D84
:1001700080937700803519F480E38093770081E4E1
:1001800090E00E94410081E490E00E9441002AE654
:100190008E3A920790F09C012E5A3A4680E2809364
:1001A0006C00DE011596E4E6F0E087E001900D9228
:1001B0008150E1F7FE01399613C02EEA3AE6281B7A
:1001C000390B8DE2ECCFC9016AE070E00E94B0010A
:1001D0008083C9016AE070E00E94B0019B01319701
:1001E0002115310581F78E81805D80936D0080350A
:1001F00019F480E280936D008F81805D80936E00A2
:10020000803519F480E380936E008885805D80934B
:10021000700081E090E02B960FB6F894DEBF0FBE21
:10022000CDBFCF91DF91089581E085BB92989198E1
:10023000909A909884EF91E00197F1F7EBE6F0E067
:1002400024EF31E0819185BB929A9198909A909891
:10025000C9010197F1F780E0EB37F80799F780ECD7
:1002600085BB92989198909A909884EF91E001972D
:10027000F1F7ECE7F0E024EF31E0819185BB929A51
:100280009198909A9098C9010197F1F780E0EC3825
:10029000F80799F781E090E0089592989198909AE4
:1002A000909884EF91E00197F1F781E090E0089554
:1002B000929A9198909A909884EF91E00197F1F733
:1002C00081E090E0089587B98EEC86B9349BFECF2B
:1002D000349A24B135B1C901089588E385BB929859
:1002E0009198909A909824EF31E0C9010197F1F725
:1002F0008EE085BB92989198909A9098C901019749
:10030000F1F78CE085BB92989198909A9098C901EA
:100310000197F1F781E085BB92989198909A909817
:10032000C9010197F1F780E885BB92989198909A5E
:100330009098C9010197F1F781E090E008951ABA09
:100340008FEF84BB87E081BB0E946D0182EB8093BD
:100350007100809378000E9476000E941401FBCF08
:10036000AA1BBB1B51E107C0AA1FBB1FA617B707DB
:1003700010F0A61BB70B881F991F5A95A9F78095F7
:0C0380009095BC01CD010895F894FFCFCA
:10038C002020200020202020202000202020202E93
:10039C002020432020202E2020432000202020201D
:0E03AC002020202020202020202020200000C3
:00000001FF
