:100000000C942A000C9447000C9447000C94470071
:100010000C9447000C9447000C9447000C94470044
:100020000C9447000C9447000C9447000C94470034
:100030000C9447000C9447000C9447000C94470024
:100040000C9447000C9447000C9447000C94470014
:100050000C94470011241FBECFE5D4E0DEBFCDBF16
:1000600010E0A0E6B0E0E8E9F3E002C005900D92F0
:10007000A638B107D9F710E0A6E8B0E001C01D929C
:10008000A838B107E1F70E9485010C94CA010C94CD
:10009000000088E385BB92989198909A909824EFFD
:1000A00031E0C9010197F1F78EE085BB92989198F4
:1000B000909A9098C9010197F1F78CE085BB9298CE
:1000C0009198909A9098C9010197F1F781E085BBCA
:1000D00092989198909A9098C9010197F1F780E8C9
:1000E00085BB92989198909A9098C9010197F1F7E1
:1000F00081E090E00895482F87B98EEC86B9349B53
:10010000FECF349A64B175B188EA91E60197F1F7B0
:1001100047B98EEC86B9349BFECF349A24B135B101
:1001200088EA91E60197F1F747B98EEC86B9349BDE
:10013000FECF349A84B195B1260F371F820F931FDB
:1001400063E070E00E94B60121E330E0A901649F02
:100150009001659F300D749F300D1124C9010895E1
:10016000DF93CF9300D000D0CDB7DEB78091600091
:1001700090916100A0916200B091630089839A839D
:10018000AB83BC8383E490E00E947B009C01FE0172
:1001900034960DC0C9016AE070E00E94B601808308
:1001A000C9016AE070E00E94B6019B0131972115F8
:1001B000310581F78981805D80936E00803519F467
:1001C00080E280936E008A81805D80936F0080352D
:1001D00019F480E380936F008B81805D80937100C0
:1001E000803519F480E38093710081E090E00F90F6
:1001F0000F900F900F90CF91DF910895DF93CF93E1
:1002000000D000D0CDB7DEB7809160009091610042
:10021000A0916200B091630089839A83AB83BC8311
:1002200081E490E00E947B009C01FE0135960DC0A8
:10023000C9016AE070E00E94B6018083C9016AE0EA
:1002400070E00E94B6019B0131972115310581F7BD
:100250008981805D80936600803519F480E3809306
:1002600066008A81805D80936800803519F480E3A0
:10027000809368008B81805D80936900803519F4DC
:1002800080E38093690081E090E00F900F900F90E1
:100290000F90CF91DF91089581E085BB929891985E
:1002A000909A909884EF91E00197F1F7E4E6F0E0FE
:1002B00024EF31E0819185BB929A9198909A909821
:1002C000C9010197F1F780E0E437F80799F780EC6E
:1002D00085BB92989198909A909884EF91E00197BD
:1002E000F1F7E5E7F0E024EF31E0819185BB929AE8
:1002F0009198909A9098C9010197F1F780E0E538BC
:10030000F80799F781E090E008951ABA8FEF84BB5F
:1003100087E081BB0E94490082EB809372000E94BB
:10032000FE000E94B0000E944C01F9CF9298919873
:10033000909A909884EF91E00197F1F781E090E036
:100340000895929A9198909A909884EF91E00197ED
:10035000F1F781E090E0089587B98EEC86B9349B7F
:10036000FECF349A24B135B1C9010895AA1BBB1B35
:1003700051E107C0AA1FBB1FA617B70710F0A61BA5
:10038000B70B881F991F5A95A9F780959095BC01C6
:08039000CD010895F894FFCFA0
:1003980020202000553D202E20205620543D20208E
:1003A8002E20204300493D20202E204120534F433A
:0603B8003D20202520007D
:00000001FF
