:100000000C942A000C943F000C943F000C943F0089
:100010000C943F000C943F000C943F000C943F0064
:100020000C943F000C943F000C943F000C943F0054
:100030000C943F000C943F000C943F000C943F0044
:100040000C943F000C943F000C943F000C943F0034
:100050000C943F0011241FBECFE5D4E0DEBFCDBF1E
:1000600010E0A0E6B0E0E4E0F5E002C005900D92FB
:10007000AC38B107D9F70E9444010C9480020C946B
:100080000000CF93DF93482F87B98EEC86B9349B5D
:10009000FECF349AC4B1D5B188EA91E60197F1F761
:1000A00047B98EEC86B9349BFECF349A24B135B172
:1000B00088EA91E60197F1F747B98EEC86B9349B4F
:1000C000FECF349AA4B1B5B147B98EEC86B9349B52
:1000D000FECF349AE4B1F5B188EA91E60197F1F7E1
:1000E00047B98EEC86B9349BFECF349A64B175B1B2
:1000F00088EA91E60197F1F747B98EEC86B9349B0F
:10010000FECF349A84B195B12C0F3D1F2A0F3B1FAF
:100110002E0F3F1F260F371F820F931F66E070E0E0
:100120000E946C0221E330E0A901649F9001659F69
:10013000300D749F300D1124C901DF91CF910895C6
:1001400087B98EEC86B9349BFECF349A24B135B191
:10015000C9010895DF93CF93CDB7DEB72B970FB6C4
:10016000F894DEBF0FBECDBF80916000909161001A
:10017000A0916200B091630089839A83AB83BC83B2
:1001800083E490E00E9441009C01FE0134960DC082
:10019000C9016AE070E00E946C028083C9016AE0D4
:1001A00070E00E946C029B0131972115310581F7A7
:1001B0008981805D80937600803519F480E2809398
:1001C00076008A81805D80937700803519F480E322
:1001D000809377008B81805D80937900803519F45E
:1001E00080E38093790081E490E00E9441002AE658
:1001F0008E3A920790F09C012E5A3A4680E2809304
:100200006C00DE011596E4E6F0E087E001900D92C7
:100210008150E1F7FE01399613C02EEA3AE6281B19
:10022000390B8DE2ECCFC9016AE070E00E946C02EC
:100230008083C9016AE070E00E946C029B013197E3
:100240002115310581F78E81805D80936D008035A9
:1002500019F480E280936D008F81805D80936E0041
:10026000803519F480E380936E008885805D8093EB
:10027000700081E090E02B960FB6F894DEBF0FBEC1
:10028000CDBFCF91DF9108951ABA82EB80937100B0
:1002900080937A000E94D6010E94CE010E94AA009B
:1002A00080E00E94D2018BE690E00E94BA0180E4D7
:1002B0000E94D2018BE790E00E94BA01EFCF662343
:1002C00011F0929A01C0929887FF02C0AF9A01C0C4
:1002D000AF98982F86FF02C0AE9A01C0AE9895FFE6
:1002E00002C0AD9A01C0AD9894FF02C0AC9A01C0A3
:1002F000AC980000909A0000909893FF02C0AF9ACB
:1003000001C0AF9892FF02C0AE9A01C0AE9891FFB3
:1003100002C0AD9A01C0AD9890FF02C0AC9A01C076
:10032000AC980000909A00009098AF9AAE9AAD9A5F
:10033000AC9A662341F4843030F489E991E0019766
:10034000F1F700C003C09DE09A95F1F70000089511
:1003500061E00E945F010895CF93DF93EC0102C03A
:100360000E94A801FE01219684918823C9F7DF919C
:10037000CF910895CF93DF93EC0102C00E94A801B2
:1003800089918823D9F7DF91CF91089560E00E9489
:100390005F01089582E00E94C601089581E00E94F5
:1003A000C601089580580E94C6010895889A8A9AC5
:1003B000899AA79AA69AA59AA49A909892989198A1
:1003C000AF9AAE9AAD9AAC9A85EA9EE00197F1F7A2
:1003D00000C00000AF98AE980000909A000090987E
:1003E00080E094E00197F1F700C00000909A0000CF
:1003F000909891E29A95F1F70000909A00009098F9
:100400008DE08A95F1F70000AC980000909A00000A
:1004100090989DE09A95F1F70000AC980000909AB2
:10042000000090980000AF9A0000909A0000909809
:100430008DE08A95F1F7000088E00E94C6010E94D5
:10044000CE0186E00E94C6018CE00E94C60108959C
:10045000929A919AA798A698A598A498909A000025
:1004600043B333B353B363B390980000909A000042
:1004700083B39D9902C0E0E001C0E2E09E9902C012
:1004800070E001C074E023B3221F2227221F220F35
:10049000220F220F9098A79AA69AA59AA49AAF9A8B
:1004A000AE9AAD9AAC9A91989DE09A95F1F70000BA
:1004B00030724071342B5074352B6078362B90E0BD
:1004C00044E0969587954A95E1F78170382B3E2B4D
:1004D000372B832F822B0895AA1BBB1B51E107C02A
:1004E000AA1FBB1FA617B70710F0A61BB70B881FC4
:1004F000991F5A95A9F780959095BC01CD01089553
:04050000F894FFCF9D
:100504002020200020202020202000492020202EF0
:1005140020202020452020202E20202020202020A4
:0C05240058582E58585620202020200047
:00000001FF
