:100000000C942A000C943F000C943F000C943F0089
:100010000C943F000C943F000C943F000C943F0064
:100020000C943F000C943F000C943F000C943F0054
:100030000C943F000C943F000C943F000C943F0044
:100040000C943F000C943F000C943F000C943F0034
:100050000C943F0011241FBECFE5D4E0DEBFCDBF1E
:1000600010E0A0E6B0E0E2E4F2E002C005900D92FC
:10007000AA36B107D9F70E94DA000C941F010C943C
:10008000000088E385BB92989198909A909824EF0D
:1000900031E0C9010197F1F78EE085BB9298919804
:1000A000909A9098C9010197F1F78CE085BB9298DE
:1000B0009198909A9098C9010197F1F781E085BBDA
:1000C00092989198909A9098C9010197F1F780E8D9
:1000D00085BB92989198909A9098C9010197F1F7F1
:1000E00081E090E008950F931F93DF93CF93CDB7F6
:1000F000DEB729970FB6F894DEBF0FBECDBF83E4FD
:1001000087B98EEC86B9349BFECFDE011196E0E60E
:10011000F0E089E001900D928150E1F7349A24B12A
:1001200035B181E390E0289FF001299FF00D389FC1
:10013000F00D11248E010A5F1F4F0FC0CF016AE03E
:1001400070E00E940B01D8018C93CF016AE070E04F
:100150000E940B01FB0101501040309779F781E0BC
:1001600085BB92989198909A909884EF91E001972E
:10017000F1F7FE01319644EF51E09E012A5F3F4FB7
:100180008191805D85BB929A9198909A9098CA01CE
:100190000197F1F7E217F30799F781E090E02996CC
:1001A0000FB6F894DEBF0FBECDBFCF91DF911F9188
:1001B0000F910895CF93DF931ABA8FEF84BB87E036
:1001C00081BB0E944100C8EAD1E6CE010197F1F758
:1001D0000E947300FACF92989198909A909884EF29
:1001E00091E00197F1F781E090E00895929A91985B
:1001F000909A909884EF91E00197F1F781E090E078
:10020000089587B98EEC86B9349BFECF349A24B119
:1002100035B1C9010895AA1BBB1B51E107C0AA1F34
:10022000BB1FA617B70710F0A61BB70B881F991F97
:100230005A95A9F780959095BC01CD010895F89441
:02024000FFCFEE
:0A02420020202020202020200000B2
:00000001FF
