:100000000C942A000C943F000C943F000C943F0089
:100010000C943F000C943F000C943F000C943F0064
:100020000C943F000C943F000C943F000C943F0054
:100030000C943F000C943F000C943F000C943F0044
:100040000C943F000C943F000C943F000C943F0034
:100050000C943F0011241FBECFE5D4E0DEBFCDBF1E
:1000600010E0A0E6B0E0E2EBF2E002C005900D92F5
:10007000A836B107D9F70E9441000C9457010C949F
:1000800000000E94C1000E94B90080E690E00E943A
:10009000A5000895662311F0929A01C0929887FFF7
:1000A00002C0AF9A01C0AF98982F86FF02C0AE9AE7
:1000B00001C0AE9895FF02C0AD9A01C0AD9894FF03
:1000C00002C0AC9A01C0AC980000909A00009098D1
:1000D00093FF02C0AF9A01C0AF9892FF02C0AE9AE0
:1000E00001C0AE9891FF02C0AD9A01C0AD9890FFDB
:1000F00002C0AC9A01C0AC980000909A00009098A1
:10010000AF9AAE9AAD9AAC9A662341F4843030F43B
:1001100089E991E00197F1F700C003C09DE09A954D
:10012000F1F70000089561E00E944A000895CF931E
:10013000DF93EC0102C00E949300FE01219684919E
:100140008823C9F7DF91CF910895CF93DF93EC0116
:1001500002C00E94930089918823D9F7DF91CF9143
:10016000089560E00E944A00089582E00E94B10074
:10017000089581E00E94B100089580580E94B10066
:100180000895889A8A9A899AA79AA69AA59AA49A6B
:10019000909892989198AF9AAE9AAD9AAC9A85EA57
:1001A0009EE00197F1F700C00000AF98AE98000004
:1001B000909A0000909880E094E00197F1F700C0D9
:1001C0000000909A0000909891E29A95F1F7000053
:1001D000909A000090988DE08A95F1F70000AC9815
:1001E0000000909A000090989DE09A95F1F7000029
:1001F000AC980000909A000090980000AF9A000020
:10020000909A000090988DE08A95F1F7000088E0C0
:100210000E94B1000E94B90086E00E94B1008CE00B
:100220000E94B1000895929A919AA798A698A598CD
:10023000A498909A000043B333B353B363B3909838
:100240000000909A000083B39D9902C0E0E001C0D5
:10025000E2E09E9902C070E001C074E023B3221F67
:100260002227221F220F220F220F9098A79AA69AC8
:10027000A59AA49AAF9AAE9AAD9AAC9A91989DE03D
:100280009A95F1F7000030724071342B5074352B81
:100290006078362B90E044E0969587954A95E1F793
:1002A0008170382B3E2B372B832F822B0895F894A7
:0202B000FFCF7E
:0802B200427548754875000013
:00000001FF
