:100000000C942A000C9447000C9447000C94470071
:100010000C9447000C9447000C9447000C94470044
:100020000C9447000C9447000C9447000C94470034
:100030000C9447000C9447000C9447000C94470024
:100040000C9447000C9447000C9447000C94470014
:100050000C94470011241FBECFE5D4E0DEBFCDBF16
:1000600010E0A0E6B0E0E4EEF2E002C005900D92F0
:10007000A836B107D9F710E0A8E6B0E001C01D929C
:10008000A237B107E1F70E9431010C9470010C9482
:10009000000088E385BB92989198909A90982AEFF7
:1000A00030E0C9010197F1F78EE085BB92989198F5
:1000B000909A9098C9010197F1F78CE085BB9298CE
:1000C0009198909A9098C9010197F1F781E085BBCA
:1000D00092989198909A9098C9010197F1F780E8C9
:1000E00085BB92989198909A9098C9010197F1F7E1
:1000F00081E090E0089581E487B98EEC86B9349B65
:10010000FECF349A64B175B1709369006093680052
:1001100088EB9BE029E130E0F9013197F1F7019795
:10012000D9F781E487B98EEC86B9349BFECF349A37
:1001300024B135B130936F0020936E0088EB9BE0C3
:1001400049E150E0FA013197F1F70197D9F781E4DD
:1001500087B98EEC86B9349BFECF349A84B195B1C1
:1001600090936B0080936A00260F371F820F931FB6
:1001700063E070E00E945C01CB0160936C0090939F
:100180006D00089581E490E00E947B009C01220FA5
:10019000331F820F931F64E170E00E945C01462FC1
:1001A000E72F862F972F64E670E00E945C01CB0159
:1001B00068EE73E00E945C01019711F481E301C0D5
:1001C00080E280936200842F9E2F6AE070E00E949C
:1001D0005C01CB0164E670E00E945C019C010A971F
:1001E000059760F4822F8A5D80936300842F9E2F91
:1001F0006AE070E00E945C01815D10C02F30310523
:1002000011F485E302C0822F805D80936300842F08
:100210009E2F6AE070E00E945C01805D8093650023
:1002200081E090E0089582E085BB92989198909A41
:1002300090988AEF90E00197F1F7E0E6F0E02AEF7E
:1002400030E0819185BB929A9198909A9098C901DB
:100250000197F1F780E0E736F80799F781E090E041
:1002600008951ABA8FEF84BB81BB0E9449000E9497
:10027000C2000E941301FBCF92989198909A909897
:100280008AEF90E00197F1F781E090E00895929A6B
:100290009198909A90988AEF90E00197F1F781E019
:1002A00090E0089587B98EEC86B9349BFECF349ADE
:1002B00024B135B1C9010895AA1BBB1B51E107C088
:1002C000AA1FBB1FA617B70710F0A61BB70B881FE6
:1002D000991F5A95A9F780959095BC01CD01089575
:0402E000F894FFCFC0
:0802E400553D20202E2056009C
:00000001FF
