:100000000C942A000C9447000C9447000C94470071
:100010000C9447000C9447000C9447000C94470044
:100020000C9447000C9447000C9447000C94470034
:100030000C9447000C9447000C9447000C94470024
:100040000C9447000C9447000C9447000C94470014
:100050000C94470011241FBECFE5D4E0DEBFCDBF16
:1000600010E0A0E6B0E0E0EEF4E002C005900D92F2
:10007000A836B107D9F710E0A8E6B0E001C01D929C
:10008000AC36B107E1F70E94DC000C946E020C94D0
:10009000000087B98EEC86B9349BFECF349A24B128
:1000A00035B1C901089581E487B98EEC86B9349BD6
:1000B000FECF349A84B195B18093680088EB9BE0C1
:1000C00029E130E0F9013197F1F70197D9F781E49F
:1000D00087B98EEC86B9349BFECF349A84B195B142
:1000E00080936B0088EB9BE029E130E0F9013197C8
:1000F000F1F70197D9F781E487B98EEC86B9349B83
:10010000FECF349A84B195B18093690010926A0051
:1001100080E090E0089581E490E00E9453009C010B
:10012000220F331F820F931F6AE070E00E945A0271
:10013000462FE72F862F972F64E670E00E945A0221
:10014000CB0168EE73E00E945A02019711F481E33B
:1001500001C080E280936200842F9E2F6AE070E0ED
:100160000E945A02CB0164E670E00E945A029C0190
:100170000A97059760F4822F8A5D80936300842F2D
:100180009E2F6AE070E00E945A02815D10C02F30FD
:10019000310511F485E302C0822F805D80936300F6
:1001A000842F9E2F6AE070E00E945A02805D809347
:1001B000650081E090E008951ABA0E9403010E9450
:1001C00043010E944F010E948B0080E690E067E0AF
:1001D0000E945B01F6CF85BB929A909A8AEF90E0DD
:1001E000FC013197F1F7909892980197F1F70895F3
:1001F00085BB909A8AEF90E0FC013197F1F79098D7
:100200000197F1F7089586EA9EE00197F1F715BA94
:1002100012BA84B38FEF84BB81B3876081BB80E364
:1002200085BB909A2AEF30E0F9013197F1F7909869
:10023000F9013197F1F785BB909AF9013197F1F700
:100240009098F9013197F1F785BB909AC901019710
:10025000F1F79098C9010197F1F788E385BB909A6F
:10026000C9010197F1F79098C9010197F1F78EE064
:1002700085BB909AC9010197F1F7909882EE94E0BE
:100280000197F1F7089581E085BB909A8AEF90E09D
:10029000FC013197F1F790980197F1F7089582E00A
:1002A00085BB909A8AEF90E0FC013197F1F7909826
:1002B0000197F1F708950097A1F0FC0120E04AEFC3
:1002C00050E00DC0819185BB929A909ACA01019726
:1002D000F1F790989298CA010197F1F72F5F2617CE
:1002E00088F30895623031F0633031F0613029F4E1
:1002F000805C03C08C5E01C08C5A806885BB909A7C
:100300008AEF90E0FC013197F1F790980197F1F7AF
:100310000895CF93DF93EC01862F642F0E94720122
:1003200020E04AEF50E00CC085BB929A909ACA0137
:100330000197F1F790989298CA010197F1F72F5F12
:10034000FE01E20FF11D8491882371F7DF91CF91B7
:100350000895CF93DF93EC01660F660F660F60641C
:1003600020E030E04AEF50E0862F820FFE01E20FDE
:10037000F31FE49185BB909ADA011197F1F79098F9
:10038000DA011197F1F7E5BB929A909AFA01319749
:10039000F1F790989298FA013197F1F72F5F3F4F5C
:1003A0002830310509F7DF91CF91089590E04EE1B3
:1003B0002AEF30E00AC045BB909AF9013197F1F776
:1003C0009098F9013197F1F79F5F9817A0F308957E
:1003D00090E048E12AEF30E00AC045BB909AF9016D
:1003E0003197F1F79098F9013197F1F79F5F9817DE
:1003F000A0F308958EE085BB909A8AEF90E0FC010F
:100400003197F1F790980197F1F708958FE085BB48
:10041000909A8AEF90E0FC013197F1F7909801975C
:10042000F1F708958CE085BB909A8AEF90E0FC018B
:100430003197F1F790980197F1F7089588E085BB1F
:10044000909A8AEF90E0FC013197F1F7909801972C
:10045000F1F708958CE085BB909A8AEF90E0FC015B
:100460003197F1F790980197F1F7089590E040E106
:100470002AEF30E00AC045BB909AF9013197F1F7B5
:100480009098F9013197F1F79F5F9817A0F30895BD
:1004900090E044E12AEF30E00AC045BB909AF901B0
:1004A0003197F1F79098F9013197F1F79F5F98171D
:1004B000A0F30895AA1BBB1B51E107C0AA1FBB1FD5
:1004C000A617B70710F0A61BB70B881F991F5A95E0
:1004D000A9F780959095BC01CD010895F894FFCFC0
:0804E000553D20202E2056009E
:00000001FF
