:1000000000308A0019280000223084008313000881
:10001000031918280130F800F701F70B0D28F80B29
:100020000C284A30F700F70B13281628800B0A28F3
:100030000800840183131F30830583161F149F1447
:100040001F159F11FF308312A00083161F149F14E9
:100050001F159F1183121F139F1383169F13831263
:100060001F148316091283129412A01220088316FB
:100070008700831220162008831687008312A011A0
:100080002008831687000130831294000030831605
:1000900094000108C73908388100831290010030AC
:1000A000F800920000308316920083122015200879
:1000B0008316870083129701831686138312861393
:1000C0000430A100FA30A2000420A10B622883169C
:1000D0008613831286170430A100FA30A200042090
:0800E000A10B6D285C286300F0
:02400E00393F38
:00000001FF
;PIC16F877
;CRC=71DF  CREATED="25-Jul-10 14:53"
