:10000000000001308A008A290A108A100A1182072A
:1000100028340F3401340434C830C830C8300000EC
:100020002830840083130008031924280130F800C5
:10003000F701F70B1928F80B18284A30F700F70BCF
:100040001F282228800B162808002F18292887131C
:100050002A288717A1132108831687008312AF1857
:1000600033280812342808168316081283122F1911
:100070003B2888123C288816831688128312AF19F1
:100080004328081344280817831608130000831216
:10009000A111210883168700831287154F28A1110B
:1000A000210883168700831287110800B001A1116F
:1000B000210883168700831287150000A1172108E5
:1000C0008316870083123010871B3014831608169E
:1000D0008312B010081AB0148316881683123011D8
:1000E000881A3015831608178312B011081BB01533
:1000F000A1112108831687008312871100003008A0
:10010000F8000800831688108312881083160810E0
:1001100083120814000056207808AF005620780893
:10012000AE002F0EF700F030F70577082E04F80028
:100130007808AE00AE1B8628AC080319A4288316E5
:10014000881083128814A8288316881083128810B8
:10015000000083160810831208100000A111210866
:1001600083168700831287112D0EAE000F30AE0567
:100170002E08AF0025202D080F39AE00AF00252036
:1001800008000130A000831688108312881083169F
:10019000081083120810A11121088316870083120A
:1001A00087112330A8001020A4012408023C031C5E
:1001B000E1280330AF0025200530A8001020A40A54
:1001C000D5280230AF002520A4012408033C031CDD
:1001D000F22824080420A500AC012508AD008220E7
:1001E000A40AE5288A110A12972927080C3A03194C
:1001F0000029063A03190A29023A031936293B292C
:10020000AC010130AD0082200130A0000230A80016
:1002100010204129A00A0130A8002008A9002908BF
:10022000013A03191D29033A03191F29013A031939
:100230002229073A031925292829AA012A29403009
:10024000AA002A291030AA002A295030AA002A29F7
:10025000AA012A2901302802AA072A088038AB00FF
:10026000AC012B08AD00822000004129AC01103008
:10027000AD00822041290130AC002708AD0082206A
:1002800041290800831603178C170C140000000086
:1002900083120C087F39031986290313A40003175E
:1002A0000D080313A50003170F080313A600240865
:1002B000A700F520250803178D0003132608031750
:1002C0008F0083168C170C140000000083120C0D95
:1002D0000E0D7F39031986290313A40003170D0897
:1002E0000313A50003170F080313A6002408A70093
:1002F000F520250803178D000313260803178F0028
:100300008D0A03198F0A03134229031703138A1155
:100310000A12A129840183131F30830583161F1439
:100320009F141F159F11FF308312A100C1280C30AC
:10033000A700F5200C3003178D0000308F00031349
:060340004229A129A229B7
:02400E003A373F
:00000001FF
;PIC16F877
;CRC=84B5  CREATED="25-Jul-10 01:59"
