:100000000C942A000C943F000C943F000C943F0089
:100010000C943F000C943F000C943F000C943F0064
:100020000C943F000C943F000C943F000C943F0054
:100030000C943F000C943F000C943F000C943F0044
:100040000C943F000C943F000C943F000C943F0034
:100050000C943F0011241FBECFE5D4E0DEBFCDBF1E
:1000600010E0A0E6B0E0E8EBF3E002C005900D92EE
:10007000A838B107D9F70E94B7010C94DA010C94A3
:100080000000482F87B98EEC86B9349BFECF349A96
:1000900064B175B188EA91E60197F1F747B98EEC42
:1000A00086B9349BFECF349A24B135B188EA91E603
:1000B0000197F1F747B98EEC86B9349BFECF349A9D
:1000C00084B195B1260F371F820F931F63E070E054
:1000D0000E94C60121E330E0629FC001639F900D42
:1000E000729F900D11246AE070E00E94C601CB015E
:1000F00008950F931F93DF93CF93CDB7DEB7289763
:100100000FB6F894DEBF0FBECDBF80916000909116
:100110006100A0916200B091630089839A83AB83F0
:10012000BC838D839E83AF83B88783E490E00E9475
:1001300041009C01FC0173E0EE0FFF1F7A95E1F78F
:10014000220F331FE20FF31F8E010C5F1F4F0FC0F2
:10015000CF016AE070E00E94C601D8018C93CF0104
:100160006AE070E00E94C601FB0101501040309728
:1001700079F78981805D80936B00803519F480E286
:1001800080936B008A81805D80936C00803519F4C8
:1001900080E380936C008B81805D80936E0080355E
:1001A00019F480E380936E0081E490E00E944100A6
:1001B0009C0153E0880F991F5A95E1F7220F331FD6
:1001C000820F931FBAE08B3A9B0720F09C012B5AB9
:1001D0003A4007C02BEA3AE0281B390B8DE28093A6
:1001E0006C00FE0138960DC0C9016AE070E00E9403
:1001F000C6018083C9016AE070E00E94C6019B01CC
:1002000031972115310581F78D81805D80937D00C7
:10021000803519F480E280937D008E81805D80932B
:100220007E00803519F480E380937E008F81805DAD
:1002300080938000803519F480E38093800081E012
:1002400090E028960FB6F894DEBF0FBECDBFCF91D9
:10025000DF911F910F91089581E085BB929891984D
:10026000909A909884EF91E00197F1F7E4E6F0E03E
:1002700024EF31E0819185BB929A9198909A909861
:10028000C9010197F1F780E0E437F80799F780ECAE
:1002900085BB92989198909A909884EF91E00197FD
:1002A000F1F7E5E7F0E024EF31E0819185BB929A28
:1002B0009198909A9098C9010197F1F780E0E538FC
:1002C000F80799F781E090E0089592989198909AB4
:1002D000909884EF91E00197F1F781E090E0089524
:1002E000929A9198909A909884EF91E00197F1F703
:1002F00081E090E0089587B98EEC86B9349BFECFFB
:10030000349A24B135B1C901089588E385BB929828
:100310009198909A909824EF31E0C9010197F1F7F4
:100320008EE085BB92989198909A9098C901019718
:10033000F1F78CE085BB92989198909A9098C901BA
:100340000197F1F781E085BB92989198909A9098E7
:10035000C9010197F1F780E885BB92989198909A2E
:100360009098C9010197F1F781E090E008951ABAD9
:100370008FEF84BB87E081BB0E94850182EB809375
:1003800072000E9479000E942C01FBCFAA1BBB1BAC
:1003900051E107C0AA1FBB1FA617B70710F0A61B85
:1003A000B70B881F991F5A95A9F780959095BC01A6
:0803B000CD010895F894FFCF80
:1003B800202020003335202020543D20202E2020CE
:1003C80020202020003333352020543D2020202EAB
:0803D80020202020202000005D
:00000001FF
