:100000000C942A000C943F000C943F000C943F0089
:100010000C943F000C943F000C943F000C943F0064
:100020000C943F000C943F000C943F000C943F0054
:100030000C943F000C943F000C943F000C943F0044
:100040000C943F000C943F000C943F000C943F0034
:100050000C943F0011241FBECFE5D4E0DEBFCDBF1E
:1000600010E0A0E6B0E0E0EDF1E002C005900D92F6
:10007000A636B107D9F70E94B4000C94E6000C94A0
:10008000000088E385BB92989198909A909824EF0D
:1000900031E0C9010197F1F78EE085BB9298919804
:1000A000909A9098C9010197F1F78CE085BB9298DE
:1000B0009198909A9098C9010197F1F781E085BBDA
:1000C00092989198909A9098C9010197F1F780E8D9
:1000D00085BB92989198909A9098C9010197F1F7F1
:1000E00081E090E00895DF93CF9300D000D000D05E
:1000F000CDB7DEB7DE011196E0E6F0E086E00190D4
:100100000D928150E1F781E487B98EEC86B9349B7A
:10011000FECF349A84B195B115BA92989198909A7D
:10012000909884EF91E00197F1F7FE01319644EF4A
:1001300051E09E012A5F3F4F8191805D85BB929A7D
:100140009198909A9098CA010197F1F7E217F307F6
:1001500099F781E090E026960FB6F894DEBF0FBEC7
:10016000CDBFCF91DF910895CF93DF931ABA8FEF70
:1001700084BB87E081BB0E944100C8EAD1E6CE0182
:100180000197F1F70E947300FACF92989198909A94
:10019000909884EF91E00197F1F781E090E0089565
:1001A000929A9198909A909884EF91E00197F1F744
:1001B00081E090E0089581E487B98EEC86B9349BA4
:1001C000FECF349A24B135B1C9010895F894FFCF18
:0601D00020202020200089
:00000001FF
